{
  "_format": "hh3-artifact-1",
  "contractName": "CampaignProxyFactory",
  "sourceName": "contracts/FactoryContract.sol",
  "abi": [
    {
      "inputs": [
        {
          "internalType": "address",
          "name": "_implementation",
          "type": "address"
        },
        {
          "internalType": "address",
          "name": "_tokenAddress",
          "type": "address"
        }
      ],
      "stateMutability": "nonpayable",
      "type": "constructor"
    },
    {
      "inputs": [],
      "name": "FailedDeployment",
      "type": "error"
    },
    {
      "inputs": [
        {
          "internalType": "uint256",
          "name": "balance",
          "type": "uint256"
        },
        {
          "internalType": "uint256",
          "name": "needed",
          "type": "uint256"
        }
      ],
      "name": "InsufficientBalance",
      "type": "error"
    },
    {
      "anonymous": false,
      "inputs": [
        {
          "indexed": true,
          "internalType": "address",
          "name": "compaign",
          "type": "address"
        },
        {
          "indexed": true,
          "internalType": "address",
          "name": "creator",
          "type": "address"
        },
        {
          "indexed": false,
          "internalType": "uint256",
          "name": "goal",
          "type": "uint256"
        },
        {
          "indexed": false,
          "internalType": "uint256",
          "name": "deadline",
          "type": "uint256"
        }
      ],
      "name": "CampaignCreated",
      "type": "event"
    },
    {
      "inputs": [],
      "name": "adminAddress",
      "outputs": [
        {
          "internalType": "address",
          "name": "",
          "type": "address"
        }
      ],
      "stateMutability": "view",
      "type": "function"
    },
    {
      "inputs": [],
      "name": "campaignsCount",
      "outputs": [
        {
          "internalType": "uint256",
          "name": "",
          "type": "uint256"
        }
      ],
      "stateMutability": "view",
      "type": "function"
    },
    {
      "inputs": [
        {
          "internalType": "uint256",
          "name": "goal",
          "type": "uint256"
        },
        {
          "internalType": "uint256",
          "name": "durationSeconds",
          "type": "uint256"
        },
        {
          "internalType": "uint256",
          "name": "tokensPerEth",
          "type": "uint256"
        }
      ],
      "name": "createClone",
      "outputs": [],
      "stateMutability": "nonpayable",
      "type": "function"
    },
    {
      "inputs": [
        {
          "internalType": "address",
          "name": "_to",
          "type": "address"
        },
        {
          "internalType": "uint256",
          "name": "_amount",
          "type": "uint256"
        }
      ],
      "name": "distributeTokens",
      "outputs": [],
      "stateMutability": "nonpayable",
      "type": "function"
    },
    {
      "inputs": [],
      "name": "getAllCampaigns",
      "outputs": [
        {
          "internalType": "address[]",
          "name": "",
          "type": "address[]"
        }
      ],
      "stateMutability": "view",
      "type": "function"
    },
    {
      "inputs": [
        {
          "internalType": "address",
          "name": "creator",
          "type": "address"
        }
      ],
      "name": "getCampaignsOf",
      "outputs": [
        {
          "internalType": "address[]",
          "name": "",
          "type": "address[]"
        }
      ],
      "stateMutability": "view",
      "type": "function"
    },
    {
      "inputs": [
        {
          "internalType": "uint256",
          "name": "n",
          "type": "uint256"
        }
      ],
      "name": "getRecent",
      "outputs": [
        {
          "internalType": "address[]",
          "name": "",
          "type": "address[]"
        }
      ],
      "stateMutability": "view",
      "type": "function"
    },
    {
      "inputs": [],
      "name": "implementation",
      "outputs": [
        {
          "internalType": "address",
          "name": "",
          "type": "address"
        }
      ],
      "stateMutability": "view",
      "type": "function"
    },
    {
      "inputs": [
        {
          "internalType": "address",
          "name": "",
          "type": "address"
        }
      ],
      "name": "isClone",
      "outputs": [
        {
          "internalType": "bool",
          "name": "",
          "type": "bool"
        }
      ],
      "stateMutability": "view",
      "type": "function"
    },
    {
      "inputs": [],
      "name": "token",
      "outputs": [
        {
          "internalType": "contract IERC20",
          "name": "",
          "type": "address"
        }
      ],
      "stateMutability": "view",
      "type": "function"
    }
  ],
  "bytecode": "0x60a060405234801561000f575f5ffd5b506040516108e63803806108e683398101604081905261002e9161007e565b6001600160a01b0391821660805260018054919092166001600160a01b0319918216179091555f8054909116331790556100af565b80516001600160a01b0381168114610079575f5ffd5b919050565b5f5f6040838503121561008f575f5ffd5b61009883610063565b91506100a660208401610063565b90509250929050565b6080516108186100ce5f395f8181610120015261031701526108185ff3fe608060405234801561000f575f5ffd5b506004361061009a575f3560e01c80637086812c116100635780637086812c1461015a57806386cdf6041461016d578063d62c7cb114610175578063fc0c546a14610188578063fc6f94681461019b575f5ffd5b8062ae36761461009e578063158a4988146100d55780631ca1c977146100ea57806344c89b651461010a5780635c60da1b1461011b575b5f5ffd5b6100c06100ac366004610681565b60046020525f908152604090205460ff1681565b60405190151581526020015b60405180910390f35b6100e86100e33660046106a1565b6101ad565b005b6100fd6100f8366004610681565b61029e565b6040516100cc91906106c9565b6002546040519081526020016100cc565b6101427f000000000000000000000000000000000000000000000000000000000000000081565b6040516001600160a01b0390911681526020016100cc565b6100e8610168366004610709565b610311565b6100fd610485565b6100fd610183366004610732565b6104e5565b600154610142906001600160a01b031681565b5f54610142906001600160a01b031681565b335f9081526004602052604090205460ff1661021c5760405162461bcd60e51b815260206004820152602360248201527f4f6e6c79206f6666696369616c20636c6f6e65732063616e206469737472696260448201526275746560e81b60648201526084015b60405180910390fd5b6001545f546040516323b872dd60e01b81526001600160a01b0391821660048201528482166024820152604481018490529116906323b872dd906064016020604051808303815f875af1158015610275573d5f5f3e3d5ffd5b505050506040513d601f19601f820116820180604052508101906102999190610749565b505050565b6001600160a01b0381165f9081526003602090815260409182902080548351818402810184019094528084526060939283018282801561030557602002820191905f5260205f20905b81546001600160a01b031681526001909101906020018083116102e7575b50505050509050919050565b5f61033b7f00000000000000000000000000000000000000000000000000000000000000006105c1565b604051636c28e34960e01b81523360048201526024810186905260448101859052606481018490523060848201529091506001600160a01b03821690636c28e3499060a4015f604051808303815f87803b158015610397575f5ffd5b505af11580156103a9573d5f5f3e3d5ffd5b50506002805460018181019092557f405787fa12a823e0f2b7631cc41b3ba8828b3321ca811111fa75cd3aa3bb5ace0180546001600160a01b0386166001600160a01b03199182168117909255335f8181526003602090815260408083208054808901825590845282842001805490951686179094558482526004905291909120805460ff191690931790925590925090507ffe76983af97e70cb1d5a3f3b21250c6bd2b5b9216dd3829a1cdab060e17ab15b86610467874261077c565b6040805192835260208301919091520160405180910390a350505050565b606060028054806020026020016040519081016040528092919081815260200182805480156104db57602002820191905f5260205f20905b81546001600160a01b031681526001909101906020018083116104bd575b5050505050905090565b6002546060905f6104f6848361078f565b90505f8467ffffffffffffffff811115610512576105126107a2565b60405190808252806020026020018201604052801561053b578160200160208202803683370190505b5090505f825b848110156105b6576002818154811061055c5761055c6107b6565b905f5260205f20015f9054906101000a90046001600160a01b0316838381518110610589576105896107b6565b6001600160a01b0390921660209283029190910190910152816105ab816107ca565b925050600101610541565b509095945050505050565b5f6105cc825f6105d2565b92915050565b5f814710156105fd5760405163cf47918160e01b815247600482015260248101839052604401610213565b763d602d80600a3d3981f3363d3d373d3d3d363d730000008360601b60e81c175f526e5af43d82803e903d91602b57fd5bf38360781b176020526037600983f090506001600160a01b0381166105cc5760405163b06ebf3d60e01b815260040160405180910390fd5b80356001600160a01b038116811461067c575f5ffd5b919050565b5f60208284031215610691575f5ffd5b61069a82610666565b9392505050565b5f5f604083850312156106b2575f5ffd5b6106bb83610666565b946020939093013593505050565b602080825282518282018190525f918401906040840190835b818110156105b65783516001600160a01b03168352602093840193909201916001016106e2565b5f5f5f6060848603121561071b575f5ffd5b505081359360208301359350604090920135919050565b5f60208284031215610742575f5ffd5b5035919050565b5f60208284031215610759575f5ffd5b8151801515811461069a575f5ffd5b634e487b7160e01b5f52601160045260245ffd5b808201808211156105cc576105cc610768565b818103818111156105cc576105cc610768565b634e487b7160e01b5f52604160045260245ffd5b634e487b7160e01b5f52603260045260245ffd5b5f600182016107db576107db610768565b506001019056fea2646970667358221220ae3368b77d2c1c2fd6c9b1313f39616f90d9ee21e75b507565002f744769165064736f6c634300081c0033",
  "linkReferences": {},
  "deployedLinkReferences": {},
  "immutableReferences": {
    "1113": [
      {
        "length": 32,
        "start": 288
      },
      {
        "length": 32,
        "start": 791
      }
    ]
  },
  "inputSourceName": "project/contracts/FactoryContract.sol",
  "buildInfoId": "solc-0_8_28-1e9a45b0060d89faa73f263adec0f3ba61c87922"
}