{
  "_format": "hh3-artifact-1",
  "contractName": "CrowdFundingMaster",
  "sourceName": "contracts/MasterContract.sol",
  "abi": [
    {
      "inputs": [],
      "name": "InvalidInitialization",
      "type": "error"
    },
    {
      "inputs": [],
      "name": "NotInitializing",
      "type": "error"
    },
    {
      "inputs": [
        {
          "internalType": "address",
          "name": "owner",
          "type": "address"
        }
      ],
      "name": "OwnableInvalidOwner",
      "type": "error"
    },
    {
      "inputs": [
        {
          "internalType": "address",
          "name": "account",
          "type": "address"
        }
      ],
      "name": "OwnableUnauthorizedAccount",
      "type": "error"
    },
    {
      "anonymous": false,
      "inputs": [
        {
          "indexed": true,
          "internalType": "address",
          "name": "creator",
          "type": "address"
        },
        {
          "indexed": false,
          "internalType": "uint256",
          "name": "goal",
          "type": "uint256"
        },
        {
          "indexed": false,
          "internalType": "uint256",
          "name": "deadline",
          "type": "uint256"
        }
      ],
      "name": "CampaignCreated",
      "type": "event"
    },
    {
      "anonymous": false,
      "inputs": [
        {
          "indexed": true,
          "internalType": "address",
          "name": "contributor",
          "type": "address"
        },
        {
          "indexed": false,
          "internalType": "uint256",
          "name": "amount",
          "type": "uint256"
        },
        {
          "indexed": false,
          "internalType": "uint256",
          "name": "newTotal",
          "type": "uint256"
        }
      ],
      "name": "Contributed",
      "type": "event"
    },
    {
      "anonymous": false,
      "inputs": [
        {
          "indexed": false,
          "internalType": "uint64",
          "name": "version",
          "type": "uint64"
        }
      ],
      "name": "Initialized",
      "type": "event"
    },
    {
      "anonymous": false,
      "inputs": [
        {
          "indexed": true,
          "internalType": "address",
          "name": "previousOwner",
          "type": "address"
        },
        {
          "indexed": true,
          "internalType": "address",
          "name": "newOwner",
          "type": "address"
        }
      ],
      "name": "OwnershipTransferred",
      "type": "event"
    },
    {
      "anonymous": false,
      "inputs": [
        {
          "indexed": true,
          "internalType": "address",
          "name": "banker",
          "type": "address"
        },
        {
          "indexed": false,
          "internalType": "uint256",
          "name": "amount",
          "type": "uint256"
        }
      ],
      "name": "Refund",
      "type": "event"
    },
    {
      "anonymous": false,
      "inputs": [
        {
          "indexed": true,
          "internalType": "address",
          "name": "creator",
          "type": "address"
        },
        {
          "indexed": false,
          "internalType": "uint256",
          "name": "amount",
          "type": "uint256"
        }
      ],
      "name": "Withdrawn",
      "type": "event"
    },
    {
      "inputs": [],
      "name": "contribute",
      "outputs": [],
      "stateMutability": "payable",
      "type": "function"
    },
    {
      "inputs": [],
      "name": "factoryAddress",
      "outputs": [
        {
          "internalType": "address",
          "name": "",
          "type": "address"
        }
      ],
      "stateMutability": "view",
      "type": "function"
    },
    {
      "inputs": [],
      "name": "finalize",
      "outputs": [],
      "stateMutability": "nonpayable",
      "type": "function"
    },
    {
      "inputs": [],
      "name": "getCompaignDetails",
      "outputs": [
        {
          "internalType": "address",
          "name": "creator",
          "type": "address"
        },
        {
          "internalType": "uint256",
          "name": "goal",
          "type": "uint256"
        },
        {
          "internalType": "uint256",
          "name": "deadline",
          "type": "uint256"
        },
        {
          "internalType": "uint256",
          "name": "totalRaised",
          "type": "uint256"
        },
        {
          "internalType": "enum CrowdFundingMaster.State",
          "name": "state",
          "type": "uint8"
        },
        {
          "internalType": "bool",
          "name": "withdrawn",
          "type": "bool"
        },
        {
          "internalType": "uint256",
          "name": "rewardPerEth",
          "type": "uint256"
        }
      ],
      "stateMutability": "view",
      "type": "function"
    },
    {
      "inputs": [
        {
          "internalType": "address",
          "name": "contributor",
          "type": "address"
        }
      ],
      "name": "getContributionOf",
      "outputs": [
        {
          "internalType": "uint256",
          "name": "",
          "type": "uint256"
        }
      ],
      "stateMutability": "view",
      "type": "function"
    },
    {
      "inputs": [],
      "name": "getCreator",
      "outputs": [
        {
          "internalType": "address",
          "name": "",
          "type": "address"
        }
      ],
      "stateMutability": "view",
      "type": "function"
    },
    {
      "inputs": [],
      "name": "getDeadline",
      "outputs": [
        {
          "internalType": "uint256",
          "name": "",
          "type": "uint256"
        }
      ],
      "stateMutability": "view",
      "type": "function"
    },
    {
      "inputs": [],
      "name": "getGoal",
      "outputs": [
        {
          "internalType": "uint256",
          "name": "",
          "type": "uint256"
        }
      ],
      "stateMutability": "view",
      "type": "function"
    },
    {
      "inputs": [],
      "name": "getRecommendedAllowance",
      "outputs": [
        {
          "internalType": "uint256",
          "name": "",
          "type": "uint256"
        }
      ],
      "stateMutability": "view",
      "type": "function"
    },
    {
      "inputs": [],
      "name": "getState",
      "outputs": [
        {
          "internalType": "enum CrowdFundingMaster.State",
          "name": "",
          "type": "uint8"
        }
      ],
      "stateMutability": "view",
      "type": "function"
    },
    {
      "inputs": [],
      "name": "getTotalRaised",
      "outputs": [
        {
          "internalType": "uint256",
          "name": "",
          "type": "uint256"
        }
      ],
      "stateMutability": "view",
      "type": "function"
    },
    {
      "inputs": [],
      "name": "hasEnded",
      "outputs": [
        {
          "internalType": "bool",
          "name": "",
          "type": "bool"
        }
      ],
      "stateMutability": "view",
      "type": "function"
    },
    {
      "inputs": [
        {
          "internalType": "address",
          "name": "creator",
          "type": "address"
        },
        {
          "internalType": "uint256",
          "name": "goal",
          "type": "uint256"
        },
        {
          "internalType": "uint256",
          "name": "durationSeconds",
          "type": "uint256"
        },
        {
          "internalType": "uint256",
          "name": "_tokensPerEth",
          "type": "uint256"
        },
        {
          "internalType": "address",
          "name": "_factoryAddress",
          "type": "address"
        }
      ],
      "name": "initialize",
      "outputs": [],
      "stateMutability": "nonpayable",
      "type": "function"
    },
    {
      "inputs": [],
      "name": "isActive",
      "outputs": [
        {
          "internalType": "bool",
          "name": "",
          "type": "bool"
        }
      ],
      "stateMutability": "view",
      "type": "function"
    },
    {
      "inputs": [],
      "name": "isFailed",
      "outputs": [
        {
          "internalType": "bool",
          "name": "",
          "type": "bool"
        }
      ],
      "stateMutability": "view",
      "type": "function"
    },
    {
      "inputs": [],
      "name": "isSuccessful",
      "outputs": [
        {
          "internalType": "bool",
          "name": "",
          "type": "bool"
        }
      ],
      "stateMutability": "view",
      "type": "function"
    },
    {
      "inputs": [],
      "name": "owner",
      "outputs": [
        {
          "internalType": "address",
          "name": "",
          "type": "address"
        }
      ],
      "stateMutability": "view",
      "type": "function"
    },
    {
      "inputs": [],
      "name": "refund",
      "outputs": [],
      "stateMutability": "payable",
      "type": "function"
    },
    {
      "inputs": [],
      "name": "renounceOwnership",
      "outputs": [],
      "stateMutability": "nonpayable",
      "type": "function"
    },
    {
      "inputs": [],
      "name": "rewardRate",
      "outputs": [
        {
          "internalType": "uint256",
          "name": "",
          "type": "uint256"
        }
      ],
      "stateMutability": "view",
      "type": "function"
    },
    {
      "inputs": [
        {
          "internalType": "address",
          "name": "newOwner",
          "type": "address"
        }
      ],
      "name": "transferOwnership",
      "outputs": [],
      "stateMutability": "nonpayable",
      "type": "function"
    },
    {
      "inputs": [],
      "name": "withdraw",
      "outputs": [],
      "stateMutability": "payable",
      "type": "function"
    }
  ],
  "bytecode": "0x60806040526007805460ff191690553480156018575f5ffd5b50610fbc806100265f395ff3fe608060405260043610610131575f3560e01c80638da5cb5b116100a8578063e14ed0451161006d578063e14ed04514610307578063ec4cd0cf1461033b578063ecb70fb71461034f578063f2fde38b14610366578063f416334014610385578063fda983c014610399575f5ffd5b80638da5cb5b1461027d578063966dae0e146102b95780639f550293146102d7578063b97a7d24146102eb578063d7bb99ba146102ff575f5ffd5b80634bb278f3116100f95780634bb278f3146101fb578063590e1ae31461020f5780635f8d96de146102175780636c28e34914610235578063715018a6146102545780637b0a47ee14610268575f5ffd5b80630ee2cb10146101355780631865c57d1461016b57806322f3e2d41461018a57806334326b85146101ae5780633ccfd60b146101f1575b5f5ffd5b348015610140575f5ffd5b506001546001600160a01b03165b6040516001600160a01b0390911681526020015b60405180910390f35b348015610176575f5ffd5b5060055460ff166040516101629190610e4d565b348015610195575f5ffd5b5061019e6103ad565b6040519015158152602001610162565b3480156101b9575f5ffd5b50600154600254600354600454600554600754600854604051610162976001600160a01b03169695949360ff90811693169190610e5b565b6101f96103db565b005b348015610206575f5ffd5b506101f96105f2565b6101f961066d565b348015610222575f5ffd5b506003545b604051908152602001610162565b348015610240575f5ffd5b506101f961024f366004610ebd565b61080d565b34801561025f575f5ffd5b506101f96109ae565b348015610273575f5ffd5b5061022760085481565b348015610288575f5ffd5b507f9016d09d72d40fdae2fd8ceac6b6234c7706214fd39c1cd1e609a0528c199300546001600160a01b031661014e565b3480156102c4575f5ffd5b505f5461014e906001600160a01b031681565b3480156102e2575f5ffd5b50600454610227565b3480156102f6575f5ffd5b50600254610227565b6101f96109bf565b348015610312575f5ffd5b50610227610321366004610f09565b6001600160a01b03165f9081526006602052604090205490565b348015610346575f5ffd5b5061019e610c5a565b34801561035a575f5ffd5b5060035442101561019e565b348015610371575f5ffd5b506101f9610380366004610f09565b610c62565b348015610390575f5ffd5b5061019e610c9f565b3480156103a4575f5ffd5b50610227610ca7565b6003545f90421080156103d657505f5b60055460ff1660038111156103d4576103d4610e19565b145b905090565b6001546001600160a01b031633146104465760405162461bcd60e51b8152602060048201526024808201527f6f6e6c79206f776e65722068617320726967687420746f207468697320616374604482015263696f6e2160e01b60648201526084015b60405180910390fd5b600160055460ff16600381111561045f5761045f610e19565b146104ac5760405162461bcd60e51b815260206004820152601e60248201527f636f6d706169676e206973206e6f7420796574207375636365737366756c0000604482015260640161043d565b600454158015906104c0575060075460ff16155b61050c5760405162461bcd60e51b815260206004820152601a60248201527f57697468647261776e206973206e6f7420706f737369626c6521000000000000604482015260640161043d565b6007805460ff199081166001179091556005805490911660031790556004546040515f9133918381818185875af1925050503d805f8114610568576040519150601f19603f3d011682016040523d82523d5f602084013e61056d565b606091505b50509050806105b75760405162461bcd60e51b8152602060048201526016602482015275455448207769746864726177616c206661696c65642160501b604482015260640161043d565b60045460405190815233907f7084f5476618d8e60b11ef0d7d3f06914655adb8793e28ff7f018d4c76d505d59060200160405180910390a250565b60035442116106435760405162461bcd60e51b815260206004820152601e60248201527f636f6d706169676e206973207374696c6c20696e2070726f6772657373210000604482015260640161043d565b6002546004541061065d576005805460ff19166001179055565b6005805460ff191660021790555b565b600260055460ff16600381111561068657610686610e19565b146106d35760405162461bcd60e51b815260206004820152601a60248201527f636f6d706169676e207374617465206973206e6f74206661696c000000000000604482015260640161043d565b335f9081526006602052604090205461073a5760405162461bcd60e51b8152602060048201526024808201527f796f7520617265206e6f7420636f6e7472696275746f7220666f7220636f6d7060448201526330b4b3b760e11b606482015260840161043d565b335f81815260066020526040808220805490839055905190929083908381818185875af1925050503d805f811461078c576040519150601f19603f3d011682016040523d82523d5f602084013e610791565b606091505b50509050806107d35760405162461bcd60e51b815260206004820152600e60248201526d4572726f72206f6363757265642160901b604482015260640161043d565b60405182815233907fbb28353e4598c3b9199101a66e0989549b659a59a54d2c27fbb183f1932c8e6d906020015b60405180910390a25050565b5f610816610ccd565b805490915060ff600160401b820416159067ffffffffffffffff165f8115801561083d5750825b90505f8267ffffffffffffffff1660011480156108595750303b155b905081158015610867575080155b156108855760405163f92ee8a960e01b815260040160405180910390fd5b845467ffffffffffffffff1916600117855583156108af57845460ff60401b1916600160401b1785555b6108b88a610cf7565b600180546001600160a01b0319166001600160a01b038c1617905560028990556108e28842610f3d565b60038190555f60048190556005805460ff19169055600889905580546001600160a01b038981166001600160a01b031990921691909117909155600154604080518d815260208101949094529116917f681f945f90ca3793b37315ed6a012353c82c1b37ca023ef835c746461359f552910160405180910390a283156109a257845460ff60401b19168555604051600181527fc7f505b2f371ae2175ee4913f4499e1f2633a7b5936321eed1cdaeb6115181d29060200160405180910390a15b50505050505050505050565b6109b6610d08565b61066b5f610d63565b6001546001600160a01b03163303610a315760405162461bcd60e51b815260206004820152602f60248201527f63726561746f7220686173206e6f2072696768747320746f20636f6e7472696260448201526e3aba329034b71031b7b6b830b4b3b760891b606482015260840161043d565b5f60055460ff166003811115610a4957610a49610e19565b14610aa65760405162461bcd60e51b815260206004820152602760248201527f636f6d706169676e206973206e6f7420756e646572207468652073746174652060448201526646554e44494e4760c81b606482015260840161043d565b6003544210610aea5760405162461bcd60e51b815260206004820152601060248201526f646561646c696e65206d69737365642160801b604482015260640161043d565b5f3411610b395760405162461bcd60e51b815260206004820152601e60248201527f416d6f756e74206f6620636f6e7469627574696f6e206973207a65726f210000604482015260640161043d565b335f9081526006602052604081208054349290610b57908490610f3d565b9091555050600480543491905f90610b70908490610f3d565b90915550506008545f90670de0b6b3a764000090610b8e3483610f50565b610b989190610f50565b610ba29190610f67565b5f546040516302b1493160e31b8152336004820152602481018390529192506001600160a01b03169063158a4988906044015f604051808303815f87803b158015610beb575f5ffd5b505af1158015610bfd573d5f5f3e3d5ffd5b505060025460045410801592509050610c1e576005805460ff191660011790555b60045460405133917ffa35a310d7113dddce1c275da946348e9aaebf9050b00b372033c4d84b0bd6eb9161080191348252602082015260400190565b5f60016103bd565b610c6a610d08565b6001600160a01b038116610c9357604051631e4fbdf760e01b81525f600482015260240161043d565b610c9c81610d63565b50565b5f60026103bd565b5f670de0b6b3a76400006008546001800154610cc39190610f50565b6103d69190610f67565b5f807ff0c57e16840df040f15088dc2f81fe391c3923bec73e23a9662efc9c229c6a005b92915050565b610cff610dd3565b610c9c81610df8565b33610d3a7f9016d09d72d40fdae2fd8ceac6b6234c7706214fd39c1cd1e609a0528c199300546001600160a01b031690565b6001600160a01b03161461066b5760405163118cdaa760e01b815233600482015260240161043d565b7f9016d09d72d40fdae2fd8ceac6b6234c7706214fd39c1cd1e609a0528c19930080546001600160a01b031981166001600160a01b03848116918217845560405192169182907f8be0079c531659141344cd1fd0a4f28419497f9722a3daafe3b4186f6b6457e0905f90a3505050565b610ddb610e00565b61066b57604051631afcd79f60e31b815260040160405180910390fd5b610c6a610dd3565b5f610e09610ccd565b54600160401b900460ff16919050565b634e487b7160e01b5f52602160045260245ffd5b60048110610e4957634e487b7160e01b5f52602160045260245ffd5b9052565b60208101610cf18284610e2d565b6001600160a01b038816815260208101879052604081018690526060810185905260e08101610e8d6080830186610e2d565b92151560a082015260c0015295945050505050565b80356001600160a01b0381168114610eb8575f5ffd5b919050565b5f5f5f5f5f60a08688031215610ed1575f5ffd5b610eda86610ea2565b9450602086013593506040860135925060608601359150610efd60808701610ea2565b90509295509295909350565b5f60208284031215610f19575f5ffd5b610f2282610ea2565b9392505050565b634e487b7160e01b5f52601160045260245ffd5b80820180821115610cf157610cf1610f29565b8082028115828204841417610cf157610cf1610f29565b5f82610f8157634e487b7160e01b5f52601260045260245ffd5b50049056fea264697066735822122051bea0f3790a68d0d635198d35139bdedc5304d7f1f7f9f7bb2c97aeee77509064736f6c634300081c0033",
  "linkReferences": {},
  "deployedLinkReferences": {},
  "immutableReferences": {},
  "inputSourceName": "project/contracts/MasterContract.sol",
  "buildInfoId": "solc-0_8_28-4f280e7ad9ac26530e3d359364c14f867aed83fe"
}